{
  "contractName": "tripleone",
  "abi": [
    {
      "constant": true,
      "inputs": [
        {
          "name": "",
          "type": "uint256"
        }
      ],
      "name": "tranches",
      "outputs": [
        {
          "name": "launchDate",
          "type": "uint256"
        },
        {
          "name": "endDate",
          "type": "uint256"
        },
        {
          "name": "trancheVolume",
          "type": "uint256"
        }
      ],
      "payable": false,
      "stateMutability": "view",
      "type": "function"
    },
    {
      "constant": true,
      "inputs": [
        {
          "name": "",
          "type": "uint256"
        }
      ],
      "name": "companies",
      "outputs": [
        {
          "name": "_name",
          "type": "string"
        },
        {
          "name": "_teamMembers",
          "type": "string"
        },
        {
          "name": "_location",
          "type": "string"
        },
        {
          "name": "_descriptions",
          "type": "string"
        },
        {
          "name": "_purpose",
          "type": "string"
        },
        {
          "name": "_solution",
          "type": "string"
        }
      ],
      "payable": false,
      "stateMutability": "view",
      "type": "function"
    },
    {
      "constant": true,
      "inputs": [
        {
          "name": "",
          "type": "uint256"
        }
      ],
      "name": "budgets",
      "outputs": [
        {
          "name": "_amount",
          "type": "uint256"
        },
        {
          "name": "_item",
          "type": "string"
        }
      ],
      "payable": false,
      "stateMutability": "view",
      "type": "function"
    },
    {
      "constant": true,
      "inputs": [
        {
          "name": "",
          "type": "uint256"
        }
      ],
      "name": "milestones",
      "outputs": [
        {
          "name": "_title",
          "type": "string"
        },
        {
          "name": "_timePeriod",
          "type": "string"
        }
      ],
      "payable": false,
      "stateMutability": "view",
      "type": "function"
    },
    {
      "constant": true,
      "inputs": [
        {
          "name": "",
          "type": "uint256"
        }
      ],
      "name": "addresses",
      "outputs": [
        {
          "name": "customerAddress",
          "type": "address"
        },
        {
          "name": "tokens",
          "type": "uint256"
        },
        {
          "name": "isMarketParticipant",
          "type": "bool"
        }
      ],
      "payable": false,
      "stateMutability": "view",
      "type": "function"
    },
    {
      "constant": false,
      "inputs": [
        {
          "name": "number",
          "type": "uint256"
        }
      ],
      "name": "setTotalTokenValue",
      "outputs": [],
      "payable": false,
      "stateMutability": "nonpayable",
      "type": "function"
    },
    {
      "constant": false,
      "inputs": [],
      "name": "getTotalTokenVolume",
      "outputs": [
        {
          "name": "",
          "type": "uint256"
        }
      ],
      "payable": false,
      "stateMutability": "nonpayable",
      "type": "function"
    },
    {
      "constant": false,
      "inputs": [
        {
          "name": "launch",
          "type": "uint256"
        },
        {
          "name": "end",
          "type": "uint256"
        },
        {
          "name": "volume",
          "type": "uint256"
        }
      ],
      "name": "addTranche",
      "outputs": [
        {
          "name": "",
          "type": "uint256"
        }
      ],
      "payable": false,
      "stateMutability": "nonpayable",
      "type": "function"
    },
    {
      "constant": false,
      "inputs": [
        {
          "name": "index",
          "type": "uint256"
        },
        {
          "name": "tranchedata",
          "type": "bytes32"
        }
      ],
      "name": "getTranche",
      "outputs": [
        {
          "name": "",
          "type": "uint256"
        }
      ],
      "payable": false,
      "stateMutability": "nonpayable",
      "type": "function"
    },
    {
      "constant": false,
      "inputs": [
        {
          "name": "customer",
          "type": "address"
        }
      ],
      "name": "ordersPerCustomer",
      "outputs": [
        {
          "name": "orders",
          "type": "uint256"
        }
      ],
      "payable": false,
      "stateMutability": "nonpayable",
      "type": "function"
    },
    {
      "constant": false,
      "inputs": [
        {
          "name": "customer",
          "type": "address"
        },
        {
          "name": "tokenHolder",
          "type": "address"
        },
        {
          "name": "preorders",
          "type": "uint256"
        },
        {
          "name": "date",
          "type": "uint256"
        }
      ],
      "name": "transfer",
      "outputs": [],
      "payable": false,
      "stateMutability": "nonpayable",
      "type": "function"
    },
    {
      "constant": false,
      "inputs": [
        {
          "name": "isForSale",
          "type": "bool"
        },
        {
          "name": "customer",
          "type": "address"
        }
      ],
      "name": "markTokenSaleBool",
      "outputs": [
        {
          "name": "",
          "type": "bool"
        }
      ],
      "payable": false,
      "stateMutability": "nonpayable",
      "type": "function"
    }
  ],
  "bytecode": "0x608060405234801561001057600080fd5b50611674806100206000396000f3fe608060405234801561001057600080fd5b50600436106100b45760003560e01c8063642cd57211610071578063642cd5721461053e57806369f0e05f1461055c578063ad82dd1e1461060a578063cc1c9af514610672578063e89e4ed6146106a0578063edf26d9b146107b3576100b4565b80630411b252146100b957806318cbeaee1461013157806326c25962146101875780632813d19d146101d75780633615a4361461049a5780633f3bdbbe146104e6575b600080fd5b61012f600480360360808110156100cf57600080fd5b81019080803573ffffffffffffffffffffffffffffffffffffffff169060200190929190803573ffffffffffffffffffffffffffffffffffffffff1690602001909291908035906020019092919080359060200190929190505050610833565b005b6101716004803603606081101561014757600080fd5b81019080803590602001909291908035906020019092919080359060200190929190505050610b1c565b6040518082815260200191505060405180910390f35b6101b36004803603602081101561019d57600080fd5b8101908080359060200190929190505050610bbf565b60405180848152602001838152602001828152602001935050505060405180910390f35b610203600480360360208110156101ed57600080fd5b8101908080359060200190929190505050610bf6565b6040518080602001806020018060200180602001806020018060200187810387528d818151815260200191508051906020019080838360005b8381101561025757808201518184015260208101905061023c565b50505050905090810190601f1680156102845780820380516001836020036101000a031916815260200191505b5087810386528c818151815260200191508051906020019080838360005b838110156102bd5780820151818401526020810190506102a2565b50505050905090810190601f1680156102ea5780820380516001836020036101000a031916815260200191505b5087810385528b818151815260200191508051906020019080838360005b83811015610323578082015181840152602081019050610308565b50505050905090810190601f1680156103505780820380516001836020036101000a031916815260200191505b5087810384528a818151815260200191508051906020019080838360005b8381101561038957808201518184015260208101905061036e565b50505050905090810190601f1680156103b65780820380516001836020036101000a031916815260200191505b50878103835289818151815260200191508051906020019080838360005b838110156103ef5780820151818401526020810190506103d4565b50505050905090810190601f16801561041c5780820380516001836020036101000a031916815260200191505b50878103825288818151815260200191508051906020019080838360005b8381101561045557808201518184015260208101905061043a565b50505050905090810190601f1680156104825780820380516001836020036101000a031916815260200191505b509c5050505050505050505050505060405180910390f35b6104d0600480360360408110156104b057600080fd5b810190808035906020019092919080359060200190929190505050610fcf565b6040518082815260200191505060405180910390f35b610528600480360360208110156104fc57600080fd5b81019080803573ffffffffffffffffffffffffffffffffffffffff1690602001909291905050506110c6565b6040518082815260200191505060405180910390f35b61054661118d565b6040518082815260200191505060405180910390f35b6105886004803603602081101561057257600080fd5b8101908080359060200190929190505050611196565b6040518083815260200180602001828103825283818151815260200191508051906020019080838360005b838110156105ce5780820151818401526020810190506105b3565b50505050905090810190601f1680156105fb5780820380516001836020036101000a031916815260200191505b50935050505060405180910390f35b6106586004803603604081101561062057600080fd5b81019080803515159060200190929190803573ffffffffffffffffffffffffffffffffffffffff16906020019092919050505061125f565b604051808215151515815260200191505060405180910390f35b61069e6004803603602081101561068857600080fd5b8101908080359060200190929190505050611471565b005b6106cc600480360360208110156106b657600080fd5b8101908080359060200190929190505050611483565b604051808060200180602001838103835285818151815260200191508051906020019080838360005b838110156107105780820151818401526020810190506106f5565b50505050905090810190601f16801561073d5780820380516001836020036101000a031916815260200191505b50838103825284818151815260200191508051906020019080838360005b8381101561077657808201518184015260208101905061075b565b50505050905090810190601f1680156107a35780820380516001836020036101000a031916815260200191505b5094505050505060405180910390f35b6107df600480360360208110156107c957600080fd5b81019080803590602001909291905050506115e4565b604051808473ffffffffffffffffffffffffffffffffffffffff1673ffffffffffffffffffffffffffffffffffffffff16815260200183815260200182151515158152602001935050505060405180910390f35b600073ffffffffffffffffffffffffffffffffffffffff168373ffffffffffffffffffffffffffffffffffffffff16146109ec5760008090505b6005805490508110156109e6578373ffffffffffffffffffffffffffffffffffffffff166005828154811061089e57fe5b906000526020600020906003020160000160009054906101000a900473ffffffffffffffffffffffffffffffffffffffff1673ffffffffffffffffffffffffffffffffffffffff1614156109d95782600582815481106108fa57fe5b90600052602060002090600302016001016000828254039250508190555060008090505b6005805490508110156109d7578573ffffffffffffffffffffffffffffffffffffffff166005828154811061094f57fe5b906000526020600020906003020160000160009054906101000a900473ffffffffffffffffffffffffffffffffffffffff1673ffffffffffffffffffffffffffffffffffffffff1614156109ca5783600582815481106109ab57fe5b9060005260206000209060030201600101600082825401925050819055505b808060010191505061091e565b505b808060010191505061086d565b50610b16565b8060068080549050815481106109fe57fe5b90600052602060002090600302016000015411158015610a4057506006808054905081548110610a2a57fe5b9060005260206000209060030201600101548111155b15610b155760008090505b600580549050811015610b13578473ffffffffffffffffffffffffffffffffffffffff1660058281548110610a7c57fe5b906000526020600020906003020160000160009054906101000a900473ffffffffffffffffffffffffffffffffffffffff1673ffffffffffffffffffffffffffffffffffffffff161415610b06578260058281548110610ad857fe5b9060005260206000209060030201600101600082825401925050819055508260008082825403925050819055505b8080600101915050610a4b565b505b5b50505050565b60006006604051806060016040528086815260200185815260200184815250908060018154018082558091505090600182039060005260206000209060030201600090919290919091506000820151816000015560208201518160010155604082015181600201555050506006808054905081548110610b9857fe5b90600052602060002090600302016002015460008082825403925050819055509392505050565b60068181548110610bcc57fe5b90600052602060002090600302016000915090508060000154908060010154908060020154905083565b60028181548110610c0357fe5b9060005260206000209060060201600091509050806000018054600181600116156101000203166002900480601f016020809104026020016040519081016040528092919081815260200182805460018160011615610100020316600290048015610caf5780601f10610c8457610100808354040283529160200191610caf565b820191906000526020600020905b815481529060010190602001808311610c9257829003601f168201915b505050505090806001018054600181600116156101000203166002900480601f016020809104026020016040519081016040528092919081815260200182805460018160011615610100020316600290048015610d4d5780601f10610d2257610100808354040283529160200191610d4d565b820191906000526020600020905b815481529060010190602001808311610d3057829003601f168201915b505050505090806002018054600181600116156101000203166002900480601f016020809104026020016040519081016040528092919081815260200182805460018160011615610100020316600290048015610deb5780601f10610dc057610100808354040283529160200191610deb565b820191906000526020600020905b815481529060010190602001808311610dce57829003601f168201915b505050505090806003018054600181600116156101000203166002900480601f016020809104026020016040519081016040528092919081815260200182805460018160011615610100020316600290048015610e895780601f10610e5e57610100808354040283529160200191610e89565b820191906000526020600020905b815481529060010190602001808311610e6c57829003601f168201915b505050505090806004018054600181600116156101000203166002900480601f016020809104026020016040519081016040528092919081815260200182805460018160011615610100020316600290048015610f275780601f10610efc57610100808354040283529160200191610f27565b820191906000526020600020905b815481529060010190602001808311610f0a57829003601f168201915b505050505090806005018054600181600116156101000203166002900480601f016020809104026020016040519081016040528092919081815260200182805460018160011615610100020316600290048015610fc55780601f10610f9a57610100808354040283529160200191610fc5565b820191906000526020600020905b815481529060010190602001808311610fa857829003601f168201915b5050505050905086565b60007f6c61756e6368446174650000000000000000000000000000000000000000000082141561101f576006838154811061100657fe5b90600052602060002090600302016000015490506110c0565b7f656e64446174650000000000000000000000000000000000000000000000000082141561106d576006838154811061105457fe5b90600052602060002090600302016001015490506110c0565b7f7472616e636865566f6c756d65000000000000000000000000000000000000008214156110bb57600683815481106110a257fe5b90600052602060002090600302016002015490506110c0565b600090505b92915050565b6000806000905060008090505b600580549050811015611183578373ffffffffffffffffffffffffffffffffffffffff166005828154811061110457fe5b906000526020600020906003020160000160009054906101000a900473ffffffffffffffffffffffffffffffffffffffff1673ffffffffffffffffffffffffffffffffffffffff161415611176576005818154811061115f57fe5b906000526020600020906003020160010154820191505b80806001019150506110d3565b5080915050919050565b60008054905090565b600481815481106111a357fe5b9060005260206000209060020201600091509050806000015490806001018054600181600116156101000203166002900480601f0160208091040260200160405190810160405280929190818152602001828054600181600116156101000203166002900480156112555780601f1061122a57610100808354040283529160200191611255565b820191906000526020600020905b81548152906001019060200180831161123857829003601f168201915b5050505050905082565b60008060011515841515141561136d5760008090505b600580549050811015611367578373ffffffffffffffffffffffffffffffffffffffff16600582815481106112a657fe5b906000526020600020906003020160000160009054906101000a900473ffffffffffffffffffffffffffffffffffffffff1673ffffffffffffffffffffffffffffffffffffffff16141561135a5760016005828154811061130357fe5b906000526020600020906003020160020160006101000a81548160ff0219169083151502179055506005818154811061133857fe5b906000526020600020906003020160020160009054906101000a900460ff1691505b8080600101915050611275565b50611467565b60008090505b600580549050811015611465578373ffffffffffffffffffffffffffffffffffffffff16600582815481106113a457fe5b906000526020600020906003020160000160009054906101000a900473ffffffffffffffffffffffffffffffffffffffff1673ffffffffffffffffffffffffffffffffffffffff1614156114585760006005828154811061140157fe5b906000526020600020906003020160020160006101000a81548160ff0219169083151502179055506005818154811061143657fe5b906000526020600020906003020160020160009054906101000a900460ff1691505b8080600101915050611373565b505b8091505092915050565b80600080828254019250508190555050565b6003818154811061149057fe5b9060005260206000209060020201600091509050806000018054600181600116156101000203166002900480601f01602080910402602001604051908101604052809291908181526020018280546001816001161561010002031660029004801561153c5780601f106115115761010080835404028352916020019161153c565b820191906000526020600020905b81548152906001019060200180831161151f57829003601f168201915b505050505090806001018054600181600116156101000203166002900480601f0160208091040260200160405190810160405280929190818152602001828054600181600116156101000203166002900480156115da5780601f106115af576101008083540402835291602001916115da565b820191906000526020600020905b8154815290600101906020018083116115bd57829003601f168201915b5050505050905082565b600581815481106115f157fe5b90600052602060002090600302016000915090508060000160009054906101000a900473ffffffffffffffffffffffffffffffffffffffff16908060010154908060020160009054906101000a900460ff1690508356fea165627a7a72305820d11e6eaf7298ecd13934ed460ba79b9e1a11521ca8b83b900b42f1c806d485a90029",
  "source": "\r\npragma solidity >=0.4.22 <0.6.0;\r\n\r\ncontract tripleone { \r\n\r\nuint nonTranchedVolume; \r\naddress tokenOwner;\r\n\r\n modifier ownerOnly(){\r\n        require(msg.sender == tokenOwner);\r\n      _; \r\n    }\r\n\r\n\r\n   struct Company{\r\n        string _name; // primary key\r\n        string _teamMembers; \r\n\tstring _location;\r\n        string _descriptions;\r\n        string _purpose;\r\n        string _solution;\r\n    }\r\n\r\n    // this section contains the milestone information\r\n    struct Milestone{\r\n       string _title;\r\n       string _timePeriod;\r\n    }\r\n\r\n    struct Budget{\r\n        uint _amount;\r\n        string _item;\r\n    }\r\n    \r\n    struct Customer{\r\n        address customerAddress;\r\n        uint tokens;\r\n\t    bool isMarketParticipant; \r\n    }\r\n     Company[] public companies;\r\n    Milestone[] public milestones;\r\n    Budget[] public budgets;\r\n    Customer[] public addresses; \r\n    Tranche[] public tranches;\r\n\r\n    \r\nstruct Tranche{\r\n    uint launchDate;\r\n    uint endDate; \r\n    uint trancheVolume;\r\n    \r\n}\r\n\r\nfunction setTotalTokenValue(uint number) public {\r\n    nonTranchedVolume+=number; \r\n}\r\nfunction getTotalTokenVolume() public returns(uint) {\r\n    return nonTranchedVolume;\r\n}\r\n\r\nfunction addTranche(uint launch,uint  end,uint  volume) public returns (uint) {\r\n    tranches.push(Tranche(launch, end, volume));\r\n    nonTranchedVolume -= tranches[tranches.length].trancheVolume;\r\n    \r\n}\r\nfunction getTranche(uint index, bytes32 tranchedata) public returns (uint){\r\nif(tranchedata == \"launchDate\"){\r\n    return tranches[index].launchDate;\r\n} else if(tranchedata == \"endDate\"){\r\n    return tranches[index].endDate;\r\n}  else if(tranchedata == \"trancheVolume\"){\r\n    return tranches[index].trancheVolume;\r\n}\r\nreturn 0;\r\n}\r\n\r\n\r\nfunction ordersPerCustomer (address customer) public returns (uint orders) {\r\n      uint ordersPerCustomer = 0;\r\n       for (uint x=0; x<addresses.length; x++){\r\n           if (addresses[x].customerAddress == customer){\r\n               ordersPerCustomer+=addresses[x].tokens;\r\n           }\r\n           \r\n       }\r\n       return ordersPerCustomer;\r\n}\r\nfunction transfer(address customer, address tokenHolder, uint preorders, uint date) public {\r\n    if (tokenHolder!=address(0)){\r\n           for (uint x=0; x<addresses.length; x++){\r\n           if (addresses[x].customerAddress == tokenHolder){\r\n               addresses[x].tokens-=preorders;\r\n         for (uint y=0; y<addresses.length; y++){\r\n           if (addresses[y].customerAddress == customer){\r\n               addresses[y].tokens+=preorders;\r\n           }\r\n           }\r\n           \r\n       }\r\n    }\r\n    \r\n} else {\r\n    if(tranches[tranches.length].launchDate <= date && date <= tranches[tranches.length].endDate){\r\n               for (uint z=0; z<addresses.length; z++){\r\n           if (addresses[z].customerAddress == customer){\r\n               addresses[z].tokens+=preorders;\r\n                nonTranchedVolume-= preorders;\r\n               \r\n           }\r\n           }\r\n        \r\n    }\r\n            \r\n    \r\n}\r\n}\r\nfunction markTokenSaleBool (bool isForSale, address customer) public returns (bool){\r\nbool result;\r\nif(isForSale == true){\r\n for (uint z=0; z<addresses.length; z++){\r\n           if (addresses[z].customerAddress == customer){\r\n            addresses[z].isMarketParticipant = true;\r\n\t    result = addresses[z].isMarketParticipant;\r\n           }\r\n     } \r\n    }else {\r\n\t for (uint a=0; a<addresses.length; a++){\r\n           if (addresses[a].customerAddress == customer){\r\n            addresses[a].isMarketParticipant = false;\r\n\t    result = addresses[a].isMarketParticipant;\r\n \r\n\r\n     }\r\n    }\r\n}\r\n\r\nreturn result;\r\n    \r\n}\r\n}\r\n",
  "sourcePath": "C:/Users/samar/tripleoneeip/contracts/tripleone.sol",
  "compiler": {
    "name": "solc",
    "version": "0.5.8+commit.23d335f2.Emscripten.clang"
  },
  "schemaVersion": "3.0.16",
  "updatedAt": "2019-12-05T03:55:55.649Z",
  "devdoc": {
    "methods": {}
  },
  "userdoc": {
    "methods": {}
  }
}